:020000040000FA
:0600000082EF16F0120071
:0A00060002006A2D0000C90000008E
:100010000A000000682D0000D3000000020000006C
:10002000D9CFE6FFE1CFD9FF0001BD6BBE6B040E57
:10003000BD5D000EBE595AE2FB0EDBCF14F0FC0E84
:10004000DBCF15F0FD0EDBCF16F0FE0EDBCF17F089
:100050000A0E0B6E0C6A0D6A0E6A14C006F015C00B
:1000600007F016C008F017C009F01CEC14F002C02D
:1000700014F003C015F004C016F005C017F014C04A
:10008000E6FF15C0E6FF43EC0EF0E552E552E66EE2
:10009000B90E0001BD25E96E000EBE21EA6EE552E3
:1000A000E750EF6EFB0EDBCF06F0FC0EDBCF07F068
:1000B000FD0EDBCF08F0FE0EDBCF09F00A0E0B6E53
:1000C0000C6A0D6A0E6A1CEC14F0FB0E06C0DBFF16
:1000D000FC0E07C0DBFFFD0E08C0DBFFFE0E09C0F3
:1000E000DBFF0001BD2B000EBE23A1D7E552E7CFF9
:1000F000D9FF1200D9CFE6FFE1CFD9FF040EE126E8
:10010000DE6ADE6ADE6ADD6ADD52DD52C26AC28004
:10011000C282C2B2FED7C290C450000EF350C310C8
:10012000146E000E14C0DFFF010EDB6A020EDB6AE4
:10013000030EDB6AD9CFE9FFDACFEAFFEECF06F094
:10014000EECF07F0EECF08F0EFCF09F0880E0B6E80
:10015000130E0C6E0D6A0E6ADEEC15F002C006F08E
:1001600003C007F004C008F005C009F00B6A040ED4
:100170000C6E0D6A0E6A16EC16F0040EE15C03E2DA
:1001800000D0E16AE552E16EE552E7CFD9FF1200F7
:10019000D9CFE6FFE1CFD9FF040EE126DE6ADE6AA1
:1001A000DE6ADD6ADD52DD52C26EC280C282C2B238
:1001B000FED7C290C450000EF350C310146E000E50
:1001C00014C0DFFF010EDB6A020EDB6A030EDB6A7E
:1001D000D9CFE9FFDACFEAFFEECF06F0EECF07F096
:1001E000EECF08F0EFCF09F0880E0B6E130E0C6EF9
:1001F0000D6A0E6ADEEC15F002C006F003C007F0CF
:1002000004C008F005C009F00B6A040E0C6E0D6AFC
:100210000E6A16EC16F0040EE15C03E200D0E16A0F
:10022000E552E16EE552E7CFD9FF1200D9CFE6FFE4
:10023000E1CFD9FF020EE126818E640EDE6EDD6A0B
:10024000DFCF14F0DF06010EDBCF15F001E2DB0695
:100250001450151006E0030EE66E62EC16F0E5523F
:10026000EFD7819EFC0E8116020EE15C02E2E16A8C
:10027000E552E16EE552E7CFD9FF1200D9CFE6FF94
:10028000E1CFD9FF020EE126818CFA0EDE6EDD6A27
:10029000DFCF14F0DF06010EDBCF15F001E2DB0645
:1002A0001450151006E0030EE66E62EC16F0E552EF
:1002B000EFD7819CFC0E8116020EE15C02E2E16A3E
:1002C000E552E16EE552E7CFD9FF1200819E1200A0
:1002D000819C1200D9CFE6FFE1CFD9FF020EE126C3
:1002E000B20E146E2B0E156E166A14C0E6FF15C002
:1002F000E6FF16C0E6FF800EE66E000EE66ECCEC62
:1003000014F0176E050EE15E1750E66A4FEC0DF023
:10031000E552020EDE6EDD6ADFCF14F0DF06010E5D
:10032000DBCF15F001E2DB061450151006E0030EDA
:10033000E66E62EC16F0E552EFD7AA0E146E2B0EA5
:10034000156E166A14C0E6FF15C0E6FF16C0E6FF7C
:10035000800EE66E000EE66ECCEC14F0176E050E05
:10036000E15E1750010EE66E4FEC0DF0E552AEDF88
:10037000020EE15C02E2E16AE552E16EE552E7CF8E
:10038000D9FF1200D9CFE6FFE1CFD9FF060EE12653
:10039000A70E146E2B0E156E166A14C0E6FF15C05C
:1003A000E6FF16C0E6FF18EC15F0E552E552E552FF
:1003B0000D0EE66EF1EC11F0E5520A0EE66EF1EC70
:1003C00011F0E552F40EDE6E010EDD6EDFCF14F09B
:1003D000DF06010EDBCF15F001E2DB06145015102D
:1003E00006E0030EE66E62EC16F0E552EFD7930ED0
:1003F000146E2B0E156E166A14C0E6FF15C0E6FFCC
:1004000016C0E6FF18EC15F0E552E552E5520D0E68
:10041000E66EF1EC11F0E552F40EF36E020EF3CF3E
:10042000DBFF010EF36E030EF3CFDBFF020EDBCF1B
:1004300014F0DB06030EDBCF15F001E2DB061450EF
:10044000151006E0030EE66E62EC16F0E552EED7EC
:10045000860E146E2B0E156E166A14C0E6FF15C0BC
:10046000E6FF16C0E6FF18EC15F0E552E552E5523E
:100470001A0EE66EF1EC11F0E5520D0EE66EF1EC9F
:1004800011F0E552F40EF36E040EF3CFDBFF010E14
:10049000F36E050EF3CFDBFF040EDBCF14F0DB06AB
:1004A000050EDBCF15F001E2DB061450151006E057
:1004B000030EE66E62EC16F0E552EED7060EE15C36
:1004C00002E2E16AE552E16EE552E7CFD9FF1200A0
:1004D000D9CFE6FFE1CFD9FF240EE12622EC0DF0C3
:1004E000948E948CD8EC11F0020EDE6EDD6ADFCFB4
:1004F00014F0DF06010EDBCF15F001E2DB0614502D
:10050000151006E0030EE66E62EC16F0E552EFD72A
:100510007E0E146E2B0E156E166A14C0E6FF15C003
:10052000E6FF16C0E6FF800EE66E000EE66ECCEC2F
:1005300014F0176E050EE15E1750E66A4FEC0DF0F1
:10054000E552020EF36EF3CFDBFF030EDB6A020E01
:10055000DBCF14F0DB06030EDBCF15F001E2DB0688
:100560001450151006E0030EE66E62EC16F0E5522C
:10057000EED7710E146E2B0E156E166A14C0E6FFC0
:1005800015C0E6FF16C0E6FF800EE66E000EE66EB2
:10059000CCEC14F0176E050EE15E1750010EE66EFE
:1005A0004FEC0DF0E5520F0E936E816A8A6A0D0EC4
:1005B000C16EBE0EC06EE10E926E1E0E806E896E12
:1005C000F40EF36E040EF3CFDBFF010EF36E050E97
:1005D000F3CFDBFF040EDBCF14F0DB06050EDBCF21
:1005E00015F001E2DB061450151006E0030EE66E6E
:1005F00062EC16F0E552EED7010EE66EFAEC0CF066
:10060000E55278DD77DD320EF36E060EF3CFDBFFB9
:10061000070EDB6A060EDBCF14F0DB06070EDBCF1E
:1006200015F001E2DB061450151006E0030EE66E2D
:1006300062EC16F0E552EED7640E146E2B0E156EBA
:10064000166A14C0E6FF15C0E6FF16C0E6FF800E6E
:10065000E66E000EE66ECCEC14F0176E050EE15E51
:100660001750E66A4FEC0DF0E552020EF36E080EDD
:10067000F3CFDBFF090EDB6A080EDBCF14F0DB06DD
:10068000090EDBCF15F001E2DB061450151006E071
:10069000030EE66E62EC16F0E552EED7590E146EBC
:1006A0002B0E156E166A14C0E6FF15C0E6FF16C0C5
:1006B000E6FF800EE66E000EE66ECCEC14F0176ED0
:1006C000050EE15E1750010EE66E4FEC0DF0E5529F
:1006D000F40EF36E0A0EF3CFDBFF010EF36E0B0E7A
:1006E000F3CFDBFF0A0EDBCF14F0DB060B0EDBCF04
:1006F00015F001E2DB061450151006E0030EE66E5D
:1007000062EC16F0E552EED743DD06C0A1F007C05B
:10071000A2F008C0A3F009C0A4F0A1C0E6FFA2C0E7
:10072000E6FFA3C0E6FFA4C0E6FF010EE66EE66AA0
:1007300087EC10F0146E060EE15E1450F40EF36EAA
:100740000C0EF3CFDBFF010EF36E0D0EF3CFDBFFCC
:100750000C0EDBCF14F0DB060D0EDBCF15F001E243
:10076000DB061450151006E0030EE66E62EC16F080
:10077000E552EED70DDD06C0A5F007C0A6F008C013
:10078000A7F009C0A8F0A5C0E6FFA6C0E6FFA7C075
:10079000E6FFA8C0E6FF010EE66EE66A87EC10F001
:1007A000146E060EE15E1450F40EF36E0E0EF3CFCF
:1007B000DBFF010EF36E0F0EF3CFDBFF0E0EDBCF70
:1007C00014F0DB060F0EDBCF15F001E2DB06145050
:1007D000151006E0030EE66E62EC16F0E552EED759
:1007E00089DC06C0A9F007C0AAF008C0ABF009C0B8
:1007F000ACF0A9C0E6FFAAC0E6FFABC0E6FFACC004
:10080000E6FF010EE66EE66A87EC10F0146E060E47
:10081000E15E1450F40EF36E100EF3CFDBFF010E09
:10082000F36E110EF3CFDBFF100EDBCF14F0DB06FF
:10083000110EDBCF15F001E2DB061450151006E0B7
:10084000030EE66E62EC16F0E552EED753DC06C0FE
:10085000ADF007C0AEF008C0AFF009C0B0F0ADC059
:10086000E6FFAEC0E6FFAFC0E6FFB0C0E6FF010E98
:10087000E66EE66A87EC10F0146E060EE15E145028
:1008800029DDB80EF36E120EF3CFDBFF0B0EF36E05
:10089000130EF3CFDBFF120EDBCF14F0DB06130ECB
:1008A000DBCF15F001E2DB061450151006E0030E55
:1008B000E66E62EC16F0E552EED7AD0EE96E000E74
:1008C000EA6E0001A951EE24B16FAA51EE20B26F79
:1008D000AB51EE20B36FAC51EE20B46FD890B4336F
:1008E000B333B233B133B56BB66BB76BB86BF40ED1
:1008F000F36E140EF3CFDBFF010EF36E150EF3CF84
:10090000DBFF140EDBCF14F0DB06150EDBCF15F08A
:1009100001E2DB061450151006E0030EE66E62ECF1
:1009200016F0E552EED77AEC00F006C0B5F007C03D
:10093000B6F008C0B7F009C0B8F0B5C0E6FFB6C061
:10094000E6FFB7C0E6FFB8C0E6FF010EE66EE66A56
:1009500087EC10F0146E060EE15E1450F40EF36E88
:10096000160EF3CFDBFF010EF36E170EF3CFDBFF96
:10097000160EDBCF14F0DB06170EDBCF15F001E20D
:10098000DB061450151006E0030EE66E62EC16F05E
:10099000E552EED7B1C0E6FFB2C0E6FFB3C0E6FF56
:1009A000B4C0E6FF010EE66EE66A87EC10F0146E46
:1009B000060EE15E1450B10EE96E000EEA6E000103
:1009C000B551EE5CB651EE58B751EE58B851EE58ED
:1009D00036E24C0E146E2B0E156E166A14C0E6FF2E
:1009E00015C0E6FF16C0E6FF800EE66E000EE66E4E
:1009F000CCEC14F0176E050EE15E1750E66A4FEC72
:100A00000DF0E552020EF36E180EF3CFDBFF190E58
:100A1000DB6A180EDBCF14F0DB06190EDBCF15F006
:100A200001E2DB061450151006E0030EE66E62ECE0
:100A300016F0E552EED716EC01F048DC01D04ADCA6
:100A40000001B56BB66BB76BB86BF40EF36E1A0E94
:100A5000F3CFDBFF010EF36E1B0EF3CFDBFF1A0E9D
:100A6000DBCF14F0DB061B0EDBCF15F001E2DB065B
:100A70001450151006E0030EE66E62EC16F0E55217
:100A8000EED7C8EC00F006C0B5F007C0B6F008C05D
:100A9000B7F009C0B8F0A50EE96E000EEA6E0001CD
:100AA000A151EE24B16FA251EE20B26FA351EE20FE
:100AB000B36FA451EE20B46FD890B433B333B233D4
:100AC000B133B5C0E6FFB6C0E6FFB7C0E6FFB8C0B9
:100AD000E6FF010EE66EE66A87EC10F0146E060E75
:100AE000E15E1450F40EF36E1C0EF3CFDBFF010E2B
:100AF000F36E1D0EF3CFDBFF1C0EDBCF14F0DB0615
:100B00001D0EDBCF15F001E2DB061450151006E0D8
:100B1000030EE66E62EC16F0E552EED7B1C0E6FFCA
:100B2000B2C0E6FFB3C0E6FFB4C0E6FF010EE66E5A
:100B3000E66A87EC10F0146E060EE15E1450F40EB7
:100B4000F36E1E0EF3CFDBFF010EF36E1F0EF3CF1D
:100B5000DBFF1E0EDBCF14F0DB061F0EDBCF15F024
:100B600001E2DB061450151006E0030EE66E62EC9F
:100B700016F0E552EED7B1C014F0B2C015F0B3C014
:100B800016F0B4C017F00F0E1426000E1522162210
:100B900017220001B551145CB6511558B7511658BB
:100BA000B851175865E2860E146E2B0E156E166A34
:100BB00014C0E6FF15C0E6FF16C0E6FF800EE66E25
:100BC000000EE66ECCEC14F0176E050EE15E1750C9
:100BD000E66A4FEC0DF0E552020EF36E200EF3CFF5
:100BE000DBFF210EDB6A200EDBCF14F0DB06210ECB
:100BF000DBCF15F001E2DB061450151006E0030E02
:100C0000E66E62EC16F0E552EED7C2EC01F016EC9F
:100C100001F066EC01F00001BD6BBE6B020EBD5D24
:100C2000000EBE5922E23EEC01F0320EF36E220EAF
:100C3000F3CFDBFF230EDB6A220EDBCF14F0DB06E3
:100C4000230EDBCF15F001E2DB061450151006E091
:100C5000030EE66E62EC16F0E552EED768EC01F09A
:100C60000001BD2B000EBE23D9D7C2EC01F002D08B
:100C70006AEC01F022D6240EE15C02E2E16AE55260
:0A0C8000E16EE552E7CFD9FF120044
:060C8A0081EC0BF0FB0EF3
:100C9000DBCFF3FFDB06F35000090AE0CFEC0BF0EB
:100CA000FA0E3AEC0CF0F3E1151CF1E1010E01D063
:100CB000000EB0EF0BF081EC0BF03B0EE12402E3F1
:100CC000E168E652E16E010EDB6A020EDB6AF90EA4
:100CD000DBCFF6FFFA0EDBCFF7FFFB0EDBCFF8FF23
:100CE0000800F550DF6EDF5002E1D4EF0AF0250E68
:100CF000DF5C02E0C7EF0AF0030EDB6A040EDB6A7A
:100D0000050EDB6A060EDB6A070EDB6AE9EC0AF009
:100D10002D0EDF5C0CE02B0EDF5C09E0200EDF5CAB
:100D200006E0230EDF5C03E0300EDF5C1AE1DF50EB
:100D3000300A14E0130A0FE0030A0AE00B0A05E088
:100D4000060AE4E1030EDB80E1D7030EDB82DED787
:100D5000030EDB84DBD7030EDB86D8D7030EDB88DC
:100D6000D5D72A0EDF5C1BE1E5EC0AF033EC0BF083
:100D700010E0030EDB8008680968130EDBCF0DF06E
:100D8000140EDBCF0EF050EC14F0040E06C0DBFFA7
:100D900003D0130E1CEC0BF0E9EC0AF00BD0090E9B
:100DA000DB6A8AEC0BF003E0FEEC0BF0FAD7090EDD
:100DB0001CEC0BF0030EDBB0DB982E0EDF5C1BE1AE
:100DC000E9EC0AF02A0EDF5C0BE1E5EC0AF033EC0B
:100DD0000BF003E1130E6EEC0BF0E9EC0AF00BD014
:100DE000090EDB6A8AEC0BF003E0FEEC0BF0FAD79D
:100DF000090E6EEC0BF0680EDF5C07E1E9EC0AF01F
:100E0000680EDF5C1DE1030E18D0740EDF5C17E086
:100E10007A0EDF5C14E0480EDF5C06E0540EDF5C07
:100E200003E05A0EDF5C02E1020E07D06C0EDF5CBD
:100E300003E06A0EDF5C04E1010EC1EC0BF0C9DBDC
:100E4000DF506E0A01E17FD31E0A01E192D1200A30
:100E500001E18FD13F0A01E149D11A0A01E146D1EE
:100E60000D0A01E143D1200A01E140D13A0A01E132
:100E70003DD1200A01E13AD1260A01E135D10D0A1E
:100E800001E132D11A0A01E1D9D0200A4AE0300A40
:100E90001FE0460A0EE0250A01E083D3D950F90F7E
:100EA000E96EFF0EDA20EA6E010EEE5E000EEE5ADB
:100EB000EE5ACFEC0BF0250EE66E95DB03E1151C28
:100EC00001E169D3CBEC0BF001E26BD3DB2A69D3F0
:100ED000080EDB6A040EDB50010806E2040EDB0498
:100EE00093EC0BF0DB508BDB080EDB5009E0030EBC
:100EF000DB50010B05E172DB01E04DD3080EDB6A2C
:100F000064DBEFCFDFFF43EC0CF003E1151C01E1E4
:100F100042D3CBEC0BF001E3DB2A60DB01E141D3F0
:100F20003AD3070EDB5002080FE10FEC0CF0030E72
:100F3000D6EC0BF00E0EEECFDBFF0F0EEECFDBFF8D
:100F4000100EEECFDBFF20D0F70EDBCF17F0F80E40
:100F5000DBCF18F0020E175E000E185AF70E17C0FE
:100F6000DBFFF80E18C0DBFF17C0E9FF18C0EAFF6F
:100F7000C6EC0BF0166A0E0E14C0DBFF0F0E15C088
:100F8000DBFF100E16C0DBFF0E0EDBCFE6FF0F0EF1
:100F9000DBCFE6FF100EDBCFE6FFF3EC14F0E552FB
:100FA000E552E552130E07C0DBFF140E08C0DBFF4D
:100FB000060EDB5005E0130E0AEC0CF001E26ADBD2
:100FC0002EEC0CF002E2130E37DBF1EC0BF006E036
:100FD000040E0AEC0CF002E2050E2EDB030EDBB071
:100FE00005D0FCDA01E0D7D2080EDB6A090EDB6A15
:100FF0000E0EDBCFF6FF0F0EDBCFF7FF100EDBCFB1
:10100000F8FF0800F550DF6EDF5014E034EC0CF010
:1010100011E243EC0CF003E1151C01E1BCD2BBDB97
:1010200001E3DB2A090EDB2AD9500E0FE96E000E10
:10103000CBDBE7D7D3DA01E1B4D2ADD2C6DA110EF9
:10104000EECFDBFF120EEDCFDBFF110EDBCFE6FFA5
:10105000120EDBCFE6FFE5EC14F0E552E552130E7D
:10106000F3CFDBFF140EF4CFDBFF060EDB5004E002
:10107000130ED0DB01E20EDB2EEC0CF002E2130EBD
:10108000DBDAAFDB05E0040EC5DB02E2050ED4DAE5
:10109000030EDBB005D0A2DA01E07DD2080EDB6AD8
:1010A000090EDB6A110EDBCFE9FF120EDBCFEAFF80
:1010B000EFCFDFFFDF5014E0D7DB12E2E4DB03E128
:1010C000151C01E168D267DB01E3DB2A090EDB2A8C
:1010D000110EDB2ADBCFE9FF120EE8E3DB2AE6D7AD
:1010E0007DDA01E15ED257D2030EDB8E070EDB0400
:1010F00010E195DB040E5ADB0A0EEECFDBFF0B0E80
:10110000EECFDBFF0C0EEECFDBFF0D0EEECFDBFFE5
:101110006CD0070EDB5003082CE1030EDBAE0DD0C4
:10112000B2DA020E76DAEFCF14F0156A166A176A91
:1011300014AE39D01568166835D0F70EDBCF15F030
:10114000F80EDBCF16F0020E155E000E165AF70EE3
:1011500015C0DBFFF80E16C0DBFF15C0E9FF16C097
:10116000EAFFEFCF14F00A0E14C0DBFF0B0EDB6AB0
:1011700038D0070EDB50020809E1030EDBAE04D0C5
:1011800059DB16AE10D00ED055DB0DD0030EDBAE02
:1011900012D079DA020E3DDAF9DA166A176A15AE5C
:1011A00002D016681768E2DA0C0E16C0DBFF0D0ECF
:1011B00017C0DBFF1AD0F70EDBCF16F0F80EDBCF2F
:1011C00017F0020E165E000E175AF70E16C0DBFF60
:1011D000F80E17C0DBFF16C0E9FF17C0EAFFD6DA2A
:1011E000C5DA0C0EDB6A0D0EDB6A060EDB5005E17C
:1011F000010EF36E050EF3CFDBFF150EDB6A160E44
:10120000DB6AD950370F146E000EDA20156E390ED6
:1012100014C0DBFF3A0E15C0DBFF380EDB6A080E88
:10122000DB6A0A0EAEDADF50780A12E0200A10E01C
:10123000280A0CE0200A0AE03F0A06E00D0A02E054
:10124000200A08E1020E05D0080E03D0080EDF26A2
:10125000100E97DA030EDBBE02D0DB92DB94DB507C
:10126000800B24E08ADAD890030EEB50000A08E6DF
:10127000000EEE5C000EEE58000EEE58000EEE581A
:1012800015E213DA0B680C680D680E68DEEC15F0D9
:101290000A0E02C0DBFF0B0E03C0DBFF0C0E04C006
:1012A000DBFF0D0E05C0DBFF2D0E08D0030EDBA209
:1012B00002D02B0E03D0DBA408D0200EF36E170E45
:1012C000F3CFDBFF150EDB2A02D0170EDB6A050E0B
:1012D000DB5003E1B7D901E189D0520E146E2D0E17
:1012E000156E000E166E070EDBCF17F0186A196A1E
:1012F0001A6A17C00BF018C00CF019C00DF01AC014
:101300000EF0D3D916EC16F014500224F36E1550DB
:101310000320F46E16500420F86EF4CFF7FFF3CFDD
:10132000F6FF0800090EF5CFDBFF580EDF5C0FE17A
:10133000610EF36E090E7BD90AE3200E146E090EBE
:10134000DBCFE7FF1450E75E090EE7CFDBFF070EA8
:10135000DBCF14F0156A166A176A0FDA14C00BF0A7
:1013600015C00CF016C00DF017C00EF0EECF06F051
:10137000EECF07F0EECF08F0EFCF09F016EC16F045
:1013800009C0EDFF08C0EDFF07C0EDFF06C0EFFF8D
:10139000390EDBCFE9FFDB063A0EDBCFEAFF01E2D5
:1013A000DB06090EDBCFEFFF150EDB2A4BD995E1EB
:1013B000030EDBA61DD06F0EDF5C06E1C1D918E37A
:1013C000150EDB285BDA14D0780EDF5C09E0580ECE
:1013D000DF5C06E0620EDF5C03E0420EDF5C08E1EA
:1013E000020EF36E160EF3CFDBFF02D0150EDB6A92
:1013F000030EDB50100B0EE0040EDBCF14F0050ED5
:10140000DB50D880145406E2060EDB5003E1040ED4
:10141000DB5034DA95D90AE2050EDBCFE7FF150E73
:10142000DB50E75E050EE7CFDBFF02D0050EDB6A7F
:10143000040EDBCF14F0160E45D9D880145414E2F4
:10144000160EDBCFE6FF150EDBCFE6FF040EDBCF7B
:10145000E6FF050EDB50E552E75CE552D880E75425
:10146000E552D880E7545FD9030EDB50010B0BE146
:10147000080EDB5008E0B2D801E08DD0080EDB503A
:10148000BED8080EDB6A170EDB5007E088D9170EAE
:10149000F1D903E1151C01E17ED0160EDB5016E0F8
:1014A0007ED9300EE66E9FD802E1151C74E077D924
:1014B000DFCFE6FF64EC15F0E552E552E552F4CFDC
:1014C00015F00001F31C02E1151C65E0050EDBCFF1
:1014D00014F0160EDB50D880145409E2050EDBCF51
:1014E000E7FF160EDB50E75E050EE7CFDBFF300EA1
:1014F000E66E050ECBD94FE1390EDB2ADBCFE9FFD3
:101500003A0E01E3DB2ADBCFEAFF090EEFCFDBFF68
:10151000DB500EE044D9090EADD902E1151C3BE0C9
:10152000390EDB2ADBCFE9FF3A0EEDE3DB2AEBD7FE
:1015300055D831E1160EDBCFE6FF080EC3D8E552D1
:10154000E7245DD82ED0070EDB50030A1CE0010A09
:1015500014E0030A07E07BD9DBCFEEFF020EDBCFFE
:10156000EDFF1FD0F5D8196A17AE02D018681968B8
:101570002CD8BCD819C0EEFF14D0EAD817BE186812
:1015800024D8B4D80ED063D9DBCFEFFF0AD07BD9F3
:1015900005E1151C03E1F368F46810D0FCD801E301
:1015A000DB2A79D970EF06F0010EDBCF14F0020EC2
:1015B000DBCF15F014C0F3FF15C0F4FF3B0EE15C68
:1015C00002E2E16AE552E16ECBD029D9020ED6EFF4
:1015D0000BF061D90800F550DF6E1200200EE66EA8
:1015E000080E46EF0CF064EC15F0E552E552E552BA
:1015F000F3CF14F0F4CF15F00001F31C1200146EB9
:10160000156AD950010F4DD91450EE261550ED2210
:101610001200185E000E195AF70E18C0DBFFF80E04
:1016200019C0DBFF18C0E9FF19C0EAFF1200DBCFC9
:10163000F4FFF350F45C1200DB50E76E040EE7CFCA
:10164000DBFF12000A0EDBCF14F00B0EDBCF15F020
:101650000C0EDBCF16F00D0EDBCF17F0145015106B
:10166000161017101200130EEECFDBFF140EEDCF85
:10167000DBFF130EDBCF14F0140EDBCF15F00001EF
:10168000800E15141200F70EDBCF18F0F80EDBCF2A
:1016900019F01200050EDB50E66ED950130F01D978
:1016A000E552E750EE6EED6A12000A0EDBCF06F04F
:1016B0000B0EDBCF07F00C0EDBCF08F00D0EDBCFEF
:1016C00009F01200DBCFE6FF150EDBCFE6FF050EBB
:1016D000DB50E552E724E552E7241200DB50CED878
:1016E000010EF36E060EF3CFDBFF1200EE50EFCFCC
:1016F000EAFFE96E16C0EEFF17C0EEFF18C0EEFF5E
:101700001200D9CFE6FFDACFE6FFE1CFD9FFE2CF73
:10171000DAFF1200DFCFE6FFE66A50EC16F0E55282
:10172000E552F3501200E76E080EE7CFDBFF120020
:10173000EECF14F0EECF15F0EFCF16F0176A1200CF
:10174000050EDBCF14F0150EDB50D88014541200B8
:10175000010EDBCF16F0020EDBCF17F0186A120075
:10176000E552E5CFDAFFE7CFD9FF12000A0E14C029
:10177000DBFF0B0E15C0DBFF1200D9500A0F51EF33
:101780000CF0F36E070EF3CFDBFF1200EECF14F078
:10179000EFCF15F01200010EDB2A020E1200FC0E34
:1017A000DBCFE6FFFD0EDBCFE6FF1200145E000E7E
:1017B000155AF70E14C0DBFFF80E15C0DBFF14C07E
:1017C000E9FF15C0EAFF1200DA20EA6EEF2AEECF39
:1017D000F6FF000EEF22EECFF7FFEF22EECFF8FF7D
:1017E0001200040EDBCFE6FF130EDB50E552E75C80
:1017F0009ADFDB5004DF060EDB501200090EDB50CF
:101800000A0DF350DF24D00FE76E090EE7CFDBFFA0
:10181000E9EF0AF0DB50F36E050E17EF0BF0F70E51
:10182000DBCF14F0F80EDBCF15F01200DFCFE6FFB0
:10183000F3EF0AF028DF030EECDE98EF0BF045EC37
:1018400006F0E552E552E552E55200091200BDDE10
:10185000EE50EFCFEAFFE96E010E1200130EDB50DF
:10186000F36E040E17EF0BF0040EDB50F36E090E4F
:1018700017EF0BF0DBCFE6FFF3EF0AF0E76E050E94
:10188000E7CFDBFF12008BDF16EF0CF0DBCFE6FFBC
:1018900086DF1FEF0CF0D950F90FE96EFF0EE4EF71
:0C18A0000BF0E96E000EDA20EA6E120078
:0418AC00D9CFE6FFAB
:1018B000E1CFD9FF040EE126DE6ADD6ADECF14F047
:1018C000DDCF15F0D890155004E6F40E145C010E2F
:1018D00015581DE2020EDB6A030EDB6A020EDBCF37
:1018E00014F0030EDBCF15F0D890155004E6640E0B
:1018F000145C000E155806E2020EDB2A030E01E30B
:10190000DB2AECD7DF2A010E01E3DB2AD7D7040E4E
:10191000E15C02E2E16AE552E16EE552E7CFD9FF10
:101920001200D9CFE6FFE1CFD9FF020EE126DE6A31
:10193000DD6ADECF14F0DDCF15F0D890155004E647
:10194000120E145C000E155805E2DF2A010E01E3A9
:10195000DB2AEFD7020EE15C02E2E16AE552E16EBA
:10196000E552E7CFD9FF1200D9CFE6FFE1CFD9FF8B
:10197000020EE126DE6ADD6ADECF14F0DDCF15F05F
:10198000D890155004E6200E145C030E155805E29D
:10199000DF2A010E01E3DB2AEFD7020EE15C02E24F
:1019A000E16AE552E16EE552E7CFD9FF120012007D
:1019B000D9CFE6FFE1CFD9FF8D6AFE0EDB50F00BE9
:1019C0008C6E8D80D1DF8D6AE552E7CFD9FF120092
:1019D000D9CFE6FFE1CFD9FF040E8D6EFE0EDB50AE
:1019E000F00B8C6E8D80C0DF040E8D16E552E7CFB4
:1019F000D9FF1200D9CFE6FFE1CFD9FFFE0EDB50B1
:101A0000F00BE66ED5DFE552FE0EDB38F00BE66E2E
:101A1000CFDFE552E552E7CFD9FF1200D9CFE6FF7D
:101A2000E1CFD9FFFE0EDB50F00BE66ED1DFE552C1
:101A3000FE0EDB38F00BE66ECBDFE552E552E7CF6A
:101A4000D9FF1200846A8D6A966A0F0E95168CDF94
:101A50008BDF8ADF300EE66EABDFE55285DF300EBE
:101A6000E66EA6DFE5525DDF300EE66EA1DFE552E1
:101A700058DF200EE66E9CDFE55253DF280EE66E3F
:101A8000B9DFE5520D0EE66EB5DFE552010EE66EEA
:101A9000B1DFE552060EE66EADDFE5521200D9CF9A
:101AA000E6FFE1CFD9FF050EE126FE0EDB043EE1A5
:101AB000C00EE66E9FDFE5520A0EE66E9EEC16F053
:101AC000E552DF6A100EDF5C30E2DF50EA6A800F19
:101AD000E96E000EEA22EF5017E1010EDFCFDBFFC7
:101AE000100EF36E010EDBCFF4FFF350F45C0CE24A
:101AF000010EDB50EA6A800FE96E000EEA22200E2A
:101B0000EF6E010EDB2AECD7DF50EA6A800FE96E38
:101B1000000EEA22EF50E66E81DFE5520A0EE66E15
:101B20009EEC16F0E552DF2ACDD751D0800EE66E3E
:101B300061DFE552020EF36E030EF3CFDBFF040EFE
:101B4000DB6A030EDBCF14F0DB06040EDBCF15F0EF
:101B500001E2DB061450151006E0030EE66E62EC9F
:101B600016F0E552EED7DF6A100EDF5C30E2DF5090
:101B7000EA6A800FE96E000EEA22EF5017E1010ECB
:101B8000DFCFDBFF100EF36E010EDBCFF4FFF3505F
:101B9000F45C0CE2010EDB50EA6A800FE96E000E85
:101BA000EA22200EEF6E010EDB2AECD7DF50EA6A44
:101BB000800FE96E000EEA22EF50E66E2FDFE5524D
:101BC0000A0EE66E9EEC16F0E552DF2ACDD7050E22
:101BD000E15C02E2E16AE552E16EE552E7CFD9FF4E
:101BE0001200D9CFE6FFE1CFD9FF070EE126030EA1
:101BF000DB6A040EDB6A050EDB6A060EDB6AFE0E8C
:101C0000DB0405E1C00EE66EF5DEE55204D0800E81
:101C1000E66EF0DEE552DF6A100EDF5C21E2DF5097
:101C2000E76EFC0EDBCFE9FFFD0EDBCFEAFFE750EE
:101C3000E926000EEA22EF5012E0DF50E76EFC0EBC
:101C4000DBCFE9FFFD0EDBCFEAFFE750E926000E10
:101C5000EA22EF50E66EE2DEE552DF2ADDD700D061
:101C6000100EDF5C06E2200EE66ED8DEE552DF2ABB
:101C7000F7D7070EE15C02E2E16AE552E16EE55258
:101C8000E7CFD9FF1200D9CFE6FFE1CFD9FFE65267
:101C9000FD0EDBCF14F0FE0EDBCF15F0300E14245A
:101CA000DF6EDF5000D0E552E552E7CFD9FF1200DA
:101CB000D9CFE6FFE1CFD9FF270EE126DE6ADD6A44
:101CC000020EDB6A030EDB6A040EDB6A050EDB6ABA
:101CD000060EDB6A070EDB6A0A0EDB6A0B0EDB6A96
:101CE000FD0EDBCF14F0FE0EDBCF15F0FB0EDBCFCD
:101CF00016F0FC0EDBCF17F01450165C1550175879
:101D00001BE2FD0EDBCF16F0FE0EDBCF17F0FB0E55
:101D1000DB50165C146EFC0EDB501758156E050E6A
:101D20001502F3CF15F01402F3CF14F0F45015267A
:101D300014C0DEFF15C0DDFFFB0EDBCF14F0FC0E80
:101D4000DBCF15F0FD0EDBCF16F0FE0EDBCF17F06C
:101D50001450165C155017581BE2FB0EDBCF16F023
:101D6000FC0EDBCF17F0FD0EDB50165C146EFE0E82
:101D7000DB501758156E050E1502F3CF15F014023F
:101D8000F3CF14F0F450152614C0DEFF15C0DDFFAC
:101D9000D9CFE9FFDACFEAFF020EEECFDBFF030E69
:101DA000EDCFDBFF520EF36E0C0EF3CFDBFF730EA5
:101DB000F36E0D0EF3CFDBFF3A0EF36E0E0EF3CF84
:101DC000DBFF310EF36E0F0EF3CFDBFF2A0EF36E47
:101DD000100EF3CFDBFF0A0EF36EF3CFDBFF0B0E1B
:101DE000DB6A080EDB6A090EDB6A080EDBCF14F033
:101DF000090EDBCF15F00A0EDBCF16F00B0EDBCF92
:101E000017F01450165C155017584EE3020EDBCF36
:101E100014F0030EDBCF15F00A0E0D6E0E6A14C01F
:101E200008F015C009F03AEC16F004C014F005C033
:101E300015F0040E14C0DBFF050E15C0DBFF040E09
:101E4000DBCFE6FF050EDBCFE6FF1DDFE552E552F7
:101E5000E66ED950200F146EDACF15F0080EDB5065
:101E60001424E96E090EDB501520EA6EE552E750A6
:101E7000EF6E0A0E146E156A020EDBCF08F0030E29
:101E8000DBCF09F014C00DF015C00EF03AEC16F0DF
:101E9000020E08C0DBFF030E09C0DBFF080EDB2AC1
:101EA000090E01E3DB2AA1D70A0EDBCF08F00B0EE7
:101EB000DBCF09F0060E08C0DBFF070E09C0DBFF11
:101EC000080EDB6A090EDB6A080EDBCF14F0090E80
:101ED000DBCF15F00A0EDBCF16F00B0EDBCF17F0C1
:101EE0001450165C1550175845E3D950200F186E42
:101EF000DACF19F0060EDBCF1AF0070EDBCF1BF09E
:101F00001A06000E1B5A18501A24E96E19501B208D
:101F1000EA6EEF50E66ED9500C0F146EDACF15F062
:101F2000050EE76E080EDBCF16F0090EDBCF17F0BB
:101F3000E7501626000E172214501624E96E15508D
:101F40001720EA6EE552E750EF6E060EDBCF14F075
:101F5000070EDBCF15F01406000E155A060E14C03E
:101F6000DBFF070E15C0DBFF080EDB2A090E01E3BD
:101F7000DB2AAAD7D9500C0F146EDACF15F0050E54
:101F8000E76E0A0EDBCF16F00B0EDBCF17F0E75033
:101F90001626000E172214501624E96E155017202D
:101FA000EA6E3D0EEF6E0A0EDBCF08F00B0EDBCFB4
:101FB00009F0060E08C0DBFF070E09C0DBFF080EA4
:101FC000DB6A090EDB6A080EDBCF14F0090EDBCFEB
:101FD00015F00A0EDBCF16F00B0EDBCF17F0145006
:101FE000165C155017584DE3D950200F1A6EDACFF2
:101FF0001BF0060EDBCF1CF0070EDBCF1DF01C061E
:10200000000E1D5A1A501C24E96E1B501D20EA6E4A
:10201000EF50E66ED9500C0F146EDACF15F0060EA5
:10202000E76E0A0EDBCF18F00B0EDBCF19F0E7508E
:102030001826000E1922080EDB501824166E090E01
:10204000DB501920176E14501624E96E1550172016
:10205000EA6EE552E750EF6E060EDBCF14F0070E86
:10206000DBCF15F01406000E155A060E14C0DBFF68
:10207000070E15C0DBFF080EDB2A090E01E3DB2A81
:10208000A2D7020EF36E250EF3CFDBFF260EDB6A1E
:10209000250EDBCF14F0DB06260EDBCF15F001E2B8
:1020A000DB061450151006E0030EE66E62EC16F027
:1020B000E552EED7D9500C0F146EDACF15F0166A30
:1020C00014C0E6FF15C0E6FF16C0E6FF800EE66E00
:1020D000000EE66ECCEC14F0176E050EE15E1750A4
:1020E000010EE66EDCDCE552DECF14F0DDCF15F03C
:1020F00014C0F3FF15C0F4FF270EE15C03E200D02B
:10210000E16AE552E16EE552E7CFD9FF1200D9CF7F
:10211000E6FFE1CFD9FF020EE126D950FD0FE96EAF
:10212000FF0EDA20EA6E010EEE1801E1ED5005E136
:10213000C00EE66E5FDCE55204D0800EE66E5ADC1F
:10214000E552DE6ADD6ADECF14F0DDCF15F0D890FF
:10215000155004E6040E145C000E155805E2DF2A43
:10216000010E01E3DB2AEFD70A0EE66E9EEC16F0B5
:10217000E552F90EDBCF14F0FA0EDBCF15F0FB0EB3
:10218000DBCF16F0FC0EDBCF17F0E80E0B6E030E64
:102190000C6E0D6A0E6A14C006F015C007F016C06A
:1021A00008F017C009F016EC16F006C014F007C0CE
:1021B00015F008C016F009C017F00A0E0B6E0C6A75
:1021C0000D6A0E6A14C006F015C007F016C008F0BC
:1021D00017C009F016EC16F002C014F003C015F099
:1021E00004C016F005C017F014C0E6FF15C0E6FFE6
:1021F0004ADDE552E552E66E11DCE552F90EDBCF21
:1022000014F0FA0EDBCF15F0FB0EDBCF16F0FC0E50
:10221000DBCF17F0640E0B6E0C6A0D6A0E6A14C0E9
:1022200006F015C007F016C008F017C009F016EC4C
:1022300016F006C014F007C015F008C016F009C06B
:1022400017F00A0E0B6E0C6A0D6A0E6A14C006F0C7
:1022500015C007F016C008F017C009F016EC16F00C
:1022600002C014F003C015F004C016F005C017F04A
:1022700014C0E6FF15C0E6FF06DDE552E552E66E46
:102280000EEC0DF0E552F90EDBCF14F0FA0EDBCFB9
:1022900015F0FB0EDBCF16F0FC0EDBCF17F00A0EAD
:1022A0000B6E0C6A0D6A0E6A14C006F015C007F0BA
:1022B00016C008F017C009F016EC16F006C014F0AE
:1022C00007C015F008C016F009C017F00A0E0B6E13
:1022D0000C6A0D6A0E6A14C006F015C007F016C02D
:1022E00008F017C009F016EC16F002C014F003C095
:1022F00015F004C016F005C017F014C0E6FF15C0B5
:10230000E6FFC1DCE552E552E66E0EEC0DF0E5525B
:10231000F90EDBCF14F0FA0EDBCF15F0FB0EDBCF9E
:1023200016F0FC0EDBCF17F00A0E0B6E0C6A0D6A6E
:102330000E6A14C006F015C007F016C008F017C0EA
:1023400009F016EC16F002C014F003C015F004C03A
:1023500016F005C017F014C0E6FF15C0E6FF93DCC9
:10236000E552E552E66E0EEC0DF0E552DE6ADD6AEE
:10237000DECF14F0DDCF15F0D890155004E60C0E2A
:10238000145C000E15580AE2200EE66E0EEC0DF0FD
:10239000E552DF2A010E01E3DB2AEAD7020EE15CF7
:1023A00002E2E16AE552E16EE552E7CFD9FF1200A1
:1023B000200EAC6EB8961F0EAF6EAC8AAB8EAB889B
:1023C0001200D9CFE6FFE1CFD9FFE6529EAAFED791
:1023D000AE50DF6EDF5000D0E552E552E7CFD9FFB7
:1023E0001200D9CFE6FFE1CFD9FF9EA8FED7FE0E9F
:1023F000DB50AD6EFE0EDB5000D0E552E7CFD9FFCB
:102400001200D9CFE6FFE1CFD9FF460EE1260A0E32
:10241000DE6EDD6AF36E020EF3CFDBFF030EDB6AC6
:10242000080EDB6A090EDB6A080EDBCF14F0090E1A
:10243000DBCF15F0DECF16F0DDCF17F01450165CB1
:10244000155017584FE3FD0EDBCF14F0FE0EDBCF17
:1024500015F00A0E0D6E0E6A14C008F015C009F0D2
:102460003AEC16F004C014F005C015F0060E14C0C6
:10247000DBFF070E15C0DBFF060EDBCFE6FF070E06
:10248000DBCFE6FF43EC0EF0E552E552E66ED950A5
:102490000A0F146EDACF15F0080EDB501424E96E23
:1024A000090EDB501520EA6EE552E750EF6E0A0E7A
:1024B000146E156AFD0EDBCF08F0FE0EDBCF09F0BF
:1024C00014C00DF015C00EF03AEC16F0FD0E08C069
:1024D000DBFFFE0E09C0DBFF080EDB2A090E01E35D
:1024E000DB2AA2D7D9CFE9FFDACFEAFF040EEECF7D
:1024F000DBFF050EEDCFDBFF080EDB6A090EDB6AA2
:10250000080EDBCF14F0090EDBCF15F0DECF16F08E
:10251000DDCF17F01450165C155017583BE3D95017
:102520000A0F166EDACF17F0040EDBCF18F0050E87
:10253000DBCF19F01806000E195A16501824E96E50
:1025400017501920EA6EEF50E66ED9501E0F146E28
:10255000DACF15F0080EDB501424E96E090EDB50BB
:102560001520EA6EE552E750EF6E040EDBCF14F053
:10257000050EDBCF15F01406000E155A040E14C01C
:10258000DBFF050E15C0DBFF080EDB2A090E01E399
:10259000DB2AB6D7080EDB6A090EDB6A080EDBCF32
:1025A00014F0090EDBCF15F0020EDBCF16F0030E90
:1025B000DBCF17F01450165C155017584FE3FB0E85
:1025C000DBCF14F0FC0EDBCF15F00A0E0D6E0E6A99
:1025D00014C008F015C009F03AEC16F004C014F06D
:1025E00005C015F0060E14C0DBFF070E15C0DBFF9B
:1025F000060EDBCFE6FF070EDBCFE6FF43EC0EF067
:10260000E552E552E66ED9500A0F146EDACF15F096
:10261000080EDB501424E96E090EDB501520EA6E1B
:10262000E552E750EF6E0A0E146E156AFB0EDBCF13
:1026300008F0FC0EDBCF09F014C00DF015C00EF051
:102640003AEC16F0FB0E08C0DBFFFC0E09C0DBFF06
:10265000080EDB2A090E01E3DB2AA0D7020EDBCF2E
:1026600008F0030EDBCF09F0040E08C0DBFF050EF7
:1026700009C0DBFF080EDB6A090EDB6A080EDBCF40
:1026800014F0090EDBCF15F0020EDBCF16F0030EAF
:10269000DBCF17F01450165C155017583BE3D95098
:1026A0000A0F166EDACF17F0040EDBCF18F0050E06
:1026B000DBCF19F01806000E195A16501824E96ECF
:1026C00017501920EA6EEF50E66ED950320F146E93
:1026D000DACF15F0080EDB501424E96E090EDB503A
:1026E0001520EA6EE552E750EF6E040EDBCF14F0D2
:1026F000050EDBCF15F01406000E155A040E14C09B
:10270000DBFF050E15C0DBFF080EDB2A090E01E317
:10271000DB2AB4D73C0EE66E64DEE552080EDB6AB7
:10272000090EDB6A080EDBCF14F0090EDBCF15F0C3
:10273000145C000E155814E2080EDBCFE9FF090EF9
:10274000DBCFEAFFC90EE926000EEA22EF50E66E63
:1027500048DEE552080EDB2A090E01E3DB2AE2D748
:102760003E0EE66E3EDEE552080EDB6A090EDB6ABF
:10277000080EDBCF14F0090EDBCF15F0DECF16F01C
:10278000DDCF17F01450165C1550175817E3D950C9
:102790001E0F146EDACF15F0080EDB501424E96E0C
:1027A000090EDB501520EA6EEF50E66E1ADEE55298
:1027B000080EDB2A090E01E3DB2ADAD72F0EE66EBC
:1027C00010DEE552080EDB6A090EDB6A080EDBCF6D
:1027D00014F0090EDBCF15F0020EDBCF16F0030E5E
:1027E000DBCF17F01450165C1550175817E3D9506B
:1027F000320F146EDACF15F0080EDB501424E96E98
:10280000090EDB501520EA6EEF50E66EEADDE55268
:10281000080EDB2A090E01E3DB2AD8D73D0EE66E4F
:10282000E0DDE552460EE15C02E2E16AE552E16E6E
:08283000E552E7CFD9FF1200C9
:08283800006AE86A0EAE29EF08
:1028400014F00B6C0C1E0D1E0E1E0C220D220E22FF
:10285000001E09AE34EF14F0066C071E081E091E98
:10286000072208220922001E16EC16F009BE4BEFC3
:1028700014F000AE000C066C071E081E091EE86A64
:10288000072208220922026C031E041E051E0322D1
:1028900004220522000C00BE3BEF14F00188FF0C5F
:1028A00009C013F008C012F008500D02F4CF07F071
:1028B000F3CF06F009500E02F4CF09F0F3CF08F081
:1028C0000D02F3500726F4500822E86A092212503C
:1028D0000E02F3500726F4500822E86A09220EAED1
:1028E00076EF14F01250085E1350095A13AE000C24
:0A28F0000D50085E0E50095A000C4E
:0628FA00060EF66E000E52
:10290000F76E000EF86E00010900F550C46F090063
:10291000F550C56F03E1C46701D03DD00900F55003
:10292000BF6F0900F550C06F0900F550C16F090075
:102930000900F550E96E0900F550EA6E090009003A
:102940000900F550C26F0900F550C36F0900090076
:10295000F6CFC6F0F7CFC7F0F8CFC8F0BFC0F6FF8C
:10296000C0C0F7FFC1C0F8FF0001C25302E1C3536A
:1029700007E00900F550EE6EC207F8E2C307F9D789
:10298000C6C0F6FFC7C0F7FFC8C0F8FF0001C40704
:08299000000EC55BBFD7120069
:08299800FB0EE3CFF6FFFC0E7D
:1029A000E3CFF7FFFD0EE3CFF8FFFE0EE3CFE9FF25
:1029B000FF0EE3CFEAFFE9CFF3FFEACFF4FF090010
:1029C000F5CFEFFFEE66FBD71200FE0EE3CFE9FF77
:1029D000FF0EE3CFEAFFF36AF46AEE5203E0F34A34
:1029E000F42AFBD71200FF0EE3CFF8FFE552FF0EEB
:1029F000E3CFF7FFE552FF0EE3CFF6FFE552E66ABD
:102A0000E66AE66A0900F55209E0FD0EE32A05E1EF
:102A1000FE0EE32A02E1FF0EE32AF4D7FD0EE3CF18
:102A200007F0FE0EE3CF08F0FF0EE3CF09F012002F
:102A3000D9CFE6FFDACFE6FFE1CFD9FFE2CFDAFF69
:102A4000E652E652E652E652D950FB0F146EFF0EE4
:102A5000DA20156E14C0DEFFDD6EDECFE6FFDDCFBF
:102A6000E6FFFB0EDBCFE6FFFC0EDBCFE6FFFD0E45
:102A7000DBCFE6FFD3C0E6FFD4C0E6FF5BEC06F099
:102A8000146E070EE15C02E2E16AE552E16E145059
:102A9000020EF3CFDBFF030EF4CFDBFF020EDBCF22
:102AA00014F0030EDBCF15F014C0F3FF15C0F4FFD4
:102AB000040EE15C02E2E16AE552E16EE552E5CF27
:082AC000DAFFE7CFD9FF120095
:082AC800D9CFE6FFDACFE6FFEB
:102AD000E1CFD9FFE2CFDAFFFB0EDBCF14F0FC0E23
:102AE000DBCF15F00001800E15141AE1FB0EDBCFD1
:102AF000E9FFFC0EDBCFEAFFEECFF3FFEDCFF4FFF3
:102B0000EE2A000EEF22F3CFE9FFF4CFEAFFFD0E2D
:102B1000DBCFEFFFEF50156AF36E15C0F4FF10D056
:102B2000FB0EDB50FE0806E1FD0EDBCFE6FF90EC6E
:102B300016F005D0FD0EDBCFE6FFB2EC16F0E55245
:0C2B4000E552E5CFDAFFE7CFD9FF120025
:042B4C0041424E4F65
:102B5000524D414C204556540054455354494E471C
:102B60002E2E2E00504C45415345205741495421AB
:102B7000004841505059204845414C544800574561
:102B80004C434F4D45005052455353555245204CF0
:102B90004F570041542B434D47533D393536363757
:102BA000383631393922004154004E4F524D414C94
:0C2BB0002100434F4E444954494F4E0051
:042BBC0006500B02B2
:102BC000F3CF02F0F4CF03F00C02F3500326000E13
:102BD000F420046E06500D02F3500426000EF4207B
:102BE000056E06500E02F350052607500B02F350F7
:102BF0000326F4500422000E052207500C02F35065
:102C00000426F450052207500D02F3500526085003
:102C10000B02F3500426F450052208500C02F35026
:0C2C2000052609500B02F3500526120097
:042C2C00056A046AC7
:102C3000036A026A200EE76ED89006360736083619
:102C4000093602360336043605360B50025C0C504A
:102C500003580D5004580E50055809E30B50025EFE
:102C60000C50035A0D50045A0E50055A062AE72EEE
:042C7000E4D7120093
:0C2C7400056A046A100EE76ED89008365E
:102C80000936043605360D50045C0E50055805E330
:102C90000D50045E0E50055A082AE72EF0D7120098
:102CA000F36AF46AFF0EE124E96EFF0EE220EA6E99
:102CB000ED6607D02F0EEF6404D03A0EEF6001D01E
:042CC000F32A1200E1
:0C2CC400FF0EE3501E6E480E01D04C0EB7
:102CD000E76EE72EFED7E76AE72EFED71E2EF7D760
:042CE00000001200DE
:0C2CE400000EF36E00EE00F0060E01D8AA
:102CF0001200EA6002D0EE6AFCD7F350E9601200DD
:042D0000EE6AFCD7A4
:0C2D040015EE00F025EE00F0F86A019CCE
:102D10007DEC14F0B3EC16F068EC02F0FBD7120077
:102D2000FF0EE350ACBA04D0AF6AAB8EAC8A949C71
:0C2D3000ACA2FED7AD6EF36EF46A120088
:042D3C00FF0EE35053
:102D4000E84E1200000000D000D000D0E82EFAD7E4
:022D500012006F
:0E2D52003031323334353637383961626364DC
:032D6000656600A5
:022D640012005B
:022D6600120059
:022D6800FEFF6C
:062D6A00544E33314A36DD
:042D700030333000CC
:00000001FF
